:100000000C9432010C945A010C945A010C94CA0AB3
:100010000C94700B0C944C0B0C945A010C94F0093A
:100020000C945A010C945A010C945A010C945A01E4
:100030000C945A010C945A010C945A010C945A01D4
:100040000C94A6090C945A010C94980A0C94720A08
:100050000C945A010C945A010C945A010C945A01B4
:100060000C945A010C945A0100C2010001001100C5
:1000700011000C0000E100000A002500250021000D
:10008000009600001900390039003600127A00008D
:100090001F004600460044008070000022004D0012
:1000A0004D004A00004B00003600750075007200DC
:1000B000403800004A009C009C0099008025000008
:1000C0007200EC00EC00E900C0120000E900DA0167
:1000D000DA01D70160090000D701B603B603B30304
:1000E000B0040000B3036E076E076B0758020000F0
:1000F0006E07DC0EDC0ED80E2C010000DC0EC11DDC
:10010000C11DBE1D005EBCE2613FDD83C29C7E203E
:10011000A3FD1F419DC3217FFCA2401E5F01E3BDE3
:100120003E6082DC237D9FC1421CFEA0E1BF5D03D7
:1001300080DE3C62BEE0025CDF81633D7C22C09ECB
:100140001D43A1FF4618FAA427799BC584DA3866B7
:10015000E5BB5907DB856739BAE406581947A5FBA3
:100160007826C49A653BD987045AB8E6A7F91B4597
:10017000C6987A24F8A6441A99C7257B3A6486D88B
:100180005B05E7B98CD2306EEDB3510F4E10F2AC77
:100190002F7193CD114FADF3702ECC92D38D6F3163
:1001A000B2EC0E50AFF1134DCE90722C6D33D18F57
:1001B0000C52B0EE326C8ED0530DEFB1F0AE4C124B
:1001C00091CF2D73CA947628ABF517490856B4EA37
:1001D0006937D58B5709EBB536688AD495CB297723
:1001E000F4AA4816E9B7550B88D6346A2B7597C917
:1001F0004A14F6A8742AC896154BA9F7B6E80A540B
:10020000D7896B3500000000240027002A00000079
:1002100000080002010000030407000000000000C5
:10022000000002000000002300260029000000005A
:1002300000250028002B0004040404040404040224
:100240000202020202030303030303010204081073
:100250002040800102040810200102040810200040
:10026000940BDE1511241FBECFEFD8E0DEBFCDBF4B
:1002700013E0A0E0B1E0EEEFF6E302C005900D92CE
:10028000A83AB107D9F725E0A8EAB3E001C01D926A
:10029000AA31B207E1F711E0C1E3D1E004C0219730
:1002A000FE010E947119C033D107C9F70E947B0C6F
:1002B0000C94721B0C9400008091E004E091E10426
:1002C000F091E204F8949181982B91832281382F48
:1002D000309523232283A7E0B0E01197F1F79181B5
:1002E00093239183A3E2B0E01197F1F79081789482
:1002F000EFECF0E03197F1F7982381E009F480E02A
:1003000008959091E004E091E104F091E204292F36
:10031000209580FF14C0F89482818223828381819A
:10032000892B8183A3E2B0E01197F1F78281982BAA
:100330009283789487ED90E00197F1F70895F8940F
:100340008281822382838181892B8183AFEFB0E018
:100350001197F1F78281982B928378948FE090E047
:10036000EBCFFF920F931F93CF93DF93F82E062FBF
:10037000C8E0D0E011E081E09F2D912309F480E0F6
:100380000E948101110F2197B1F7011113C0F89458
:10039000E091E104F091E20491818091E004809584
:1003A00098239183E091E104F091E2049281892302
:1003B00082837894DF91CF911F910F91FF900895E0
:1003C000CF93DF9360E085E50E94B101CAE2D4E0FB
:1003D00060E089910E94B10184E0C233D807C1F77F
:1003E000DF91CF9108958091E004E091E104F091D4
:1003F000E204F8949181282F209592239183789498
:100400003DE743E050E0315029F1DA011197F1F76F
:1004100090819823C1F3F8949281922392839181E1
:10042000982B91837894ABE7B7E01197F1F7F894A4
:10043000918192239183A3E1B1E01197F1F790812B
:10044000982381E009F080E07894E3E6F6E03197C4
:10045000F1F7089580E0089590E0FC01E25FFD4F20
:100460002491FC01E55BFD4F3491FC01E95CFD4FFB
:10047000E491EE23C9F0222339F0233001F1A8F4EE
:10048000213019F1223029F1F0E0EE0FFF1FE35D7A
:10049000FD4FA591B4918FB7F894EC91611126C0EE
:1004A00030953E233C938FBF08952730A9F0283024
:1004B000C9F0243049F7809180008F7D03C080917E
:1004C00080008F7780938000DFCF84B58F7784BDE5
:1004D000DBCF84B58F7DFBCF8091B0008F77809389
:1004E000B000D2CF8091B0008F7DF9CF3E2BDACF14
:1004F000CF93DF9390E0FC01E55BFD4F2491895C95
:100500009D4FFC0184918823D1F090E0880F991FC2
:10051000FC01EC5FFD4FA591B491FC01E35DFD4F43
:10052000C591D49161110EC09FB7F8948C91E22FC0
:10053000E0958E238C932881E223E8839FBFDF918F
:10054000CF9108958FB7F894EC91E22BEC938FBF85
:10055000F6CF4F925F926F927F928F929F92AF925F
:10056000BF92CF92DF92EF92FF920F931F93CF93A0
:100570008C014A015B0180910801823199F08F3F23
:1005800009F479C0CF911F910F91FF90EF90DF9008
:10059000CF90BF90AF909F908F907F906F905F9023
:1005A0004F900895E2E2F2E0C491C7FDEBCF61E025
:1005B00082E10E947802CC2319F0C23009F024C1F4
:1005C0002801712C612C60E472E48FE090E0A301BB
:1005D00098010E94901769017A0181E0C81AD10838
:1005E000E108F108C23009F0B5C08FEFC816D10498
:1005F000E104F10409F00CF405C160E970ED83E059
:1006000090E0A30198010E94901769017A0181E0AE
:10061000C81AD108E108F1088FEFC816D104E10427
:10062000F10411F00CF041C183E09091B100987F8A
:10063000892B8093B1002FEF3FEFA9018114910422
:10064000A104B10409F001C1C13009F40CC1C230E8
:1006500009F41BC1C11196CFC7BC20933F0430934E
:100660004004409341045093420480916E008260A4
:1006700080936E0087CF82E180930801E2E2F2E08E
:10068000C491CF3F09F47ECFC13021F150F0C23088
:1006900009F43EC0C7FD76CF61E082E10E94780296
:1006A0008CCF14BC15BC84B5826084BD85B58160D7
:1006B00085BDE9E4F2E0E491F0E0EE0FFF1FE35DB9
:1006C000FD4F85919491EDE5F2E0E491E0933604DD
:1006D000C0E06DCF10928000109281008091810067
:1006E0008860809381008091810081608093810087
:1006F000E9E4F2E0E491F0E0EE0FFF1FE35DFD4F6F
:1007000085919491EDE5F2E0E491E09335044FCFCB
:100710001092B0001092B1008091B000826080937E
:10072000B0008091B10081608093B100E9E4F2E013
:10073000E491F0E0EE0FFF1FE35DFD4F8591949192
:100740009093340480933304EDE5F2E0E491E09378
:1007500032042DCF8FEFC816D104E104F10409F063
:100760000CF44DC068E478EE81E090E0A3019801BC
:100770000E94901769017A0181E0C81AD108E10846
:10078000F108CC2309F4AAC08FEFC816D104E10404
:10079000F10409F00CF4A0C062E17AE780E090E097
:1007A000A30192010E94901769017A0181E0C81AA1
:1007B000D108E108F10886E0C11137CF94E085B592
:1007C000887F892B85BD2FEF3FEFA901811491040C
:1007D000A104B10409F440CFC0E037C064E274EF73
:1007E00080E090E0A30192010E94901769017A01D4
:1007F00081E0C81AD108E108F10885E016CF92E03F
:10080000CC23E9F282E011CF980150E040E060E0B3
:1008100072E18AE790E00E94901769017A0181E015
:10082000C81AD108E108F108C13009F004CF80915D
:100830008100887F8160809381002FEF3FEFA901C5
:1008400081149104A104B10471F0D801AA0FBB1F57
:10085000A50194010E94AF1728EE33E040E050E07C
:100860000E94F917F1CED0928900C092880020939F
:100870003B0430933C0440933D0450933E048091EC
:100880006F00826080936F007DCEC092B300209392
:100890003704309338044093390450933A048091DC
:1008A00070008260809370006DCE68E478EE81E025
:1008B00090E0A30198010E94901769017A0181E0FC
:1008C000C81AD108E108F1088FEFC816D104E10475
:1008D000F10411F00CF082CF84E0A7CE93E08FEF0B
:1008E000C816D104E104F10411F00CF055CF67CF24
:1008F0003FB7F8948091260490912704A091280492
:10090000B091290426B5A89B05C02F3F19F0019688
:10091000A11DB11D3FBFBA2FA92F982F8827BC0159
:10092000CD01620F711D811D911D42E0660F771F81
:10093000881F991F4A95D1F708958F929F92AF9281
:10094000BF92CF92DF92EF92FF924B015C010E9427
:1009500078046B017C010E9478046C197D098E0972
:100960009F09683E734081059105A8F321E0821A32
:100970009108A108B10888EEC80E83E0D81EE11CDA
:10098000F11C81149104A104B10429F7FF90EF90A8
:10099000DF90CF90BF90AF909F908F9008952FB72A
:1009A000F894609122047091230480912404909122
:1009B00025042FBF0895DC01ED91FC910190F08199
:1009C000E02D0994AF92BF92CF92DF92EF92FF9207
:1009D0000F931F93CF93DF936C017B018B01040F67
:1009E000151FEB015E01AE18BF08C017D10759F003
:1009F0006991D601ED91FC910190F081E02DC60145
:100A00000995892B79F7C501DF91CF911F910F913E
:100A1000FF90EF90DF90CF90BF90AF900895FC01D2
:100A2000538D448D252F30E0842F90E0821B930B53
:100A3000541710F0CF96089501970895FC01918DF9
:100A4000828D981761F0A28DAE0FBF2FB11D5D96FC
:100A50008C91928D9F5F9F73928F90E008958FEF9E
:100A60009FEF0895FC01918D828D981731F0828D52
:100A7000E80FF11D858D90E008958FEF9FEF0895A9
:100A8000FC01918D228D892F90E0805C9F4F821B0D
:100A900091098F739927089583E494E00E9440059B
:100AA00021E0892B09F420E0822F089580E090E076
:100AB000892B29F00E944C0581110C9400000895A7
:100AC000FC01A48DA80FB92FB11DA35ABF4F2C91C3
:100AD000848D90E001968F739927848FA689B789BA
:100AE0002C93A089B1898C91837080648C93938DB1
:100AF000848D981306C00288F389E02D80818F7D54
:100B000080830895EF92FF920F931F93CF93DF930B
:100B1000EC0181E0888F9B8D8C8D98131AC0E88939
:100B2000F989808185FF15C09FB7F894EE89FF8908
:100B30006083E889F98980818370806480839FBFA6
:100B400081E090E0DF91CF911F910F91FF90EF90A6
:100B50000895F62E0B8D10E00F5F1F4F0F731127B6
:100B6000E02E8C8D8E110CC00FB607FCFACFE889F1
:100B7000F989808185FFF5CFCE010E946005F1CF14
:100B8000EB8DEC0FFD2FF11DE35AFF4FF0829FB765
:100B9000F8940B8FEA89FB8980818062CFCFCF9355
:100BA000DF93EC01888D8823B9F0AA89BB89E88995
:100BB000F9898C9185FD03C0808186FD0DC00FB63B
:100BC00007FCF7CF8C9185FFF2CF808185FFEDCFB9
:100BD000CE010E946005E9CFDF91CF910895DC013D
:100BE0005196ED91FC915297908150968C91809501
:100BF0008923808308952091EA033091EB0328171D
:100C0000390781F49091E8038091E903981751F036
:100C1000E091E803F0E0E855FC4F8081082E000CDD
:100C2000990B08958FEF9FEF08952091EA0330917B
:100C3000EB032817390739F48FB7F8941092E903BA
:100C40001092E8038FBF08952091EA033091EB03DF
:100C50002817390771F48091E9032091E80390E0A7
:100C6000805C9F4F821B910960E470E00E944919EB
:100C7000089590E080E008952091EA033091EB031D
:100C800028173907B9F49091E8038091E903981780
:100C900089F0E091E803F0E0E855FC4F8081209175
:100CA000E80330E02F5F3F4F2F7333272093E80393
:100CB00090E008958FEF9FEF089520E001972FEFC8
:100CC0008F3F9207D9F7089590E080E00895209132
:100CD0000101211105C0AB0170E060E00C94A90294
:100CE0000895682F88E00C942C0261E083E00C9456
:100CF0002C02DF92EF92FF920F931F93CF93DF931B
:100D0000EC01898D9A8D892B71F481E090E09B83B1
:100D10008A8390E080E0DF91CF911F910F91FF9047
:100D2000EF90DF900895162FDFB6F8948B8D81FD3C
:100D300029C0CE010E94EF05898D9A8D05960E94EB
:100D40005D068B8D98E0E92EF12C01E081FF28C033
:100D5000812F8023F1F0CE010E94EF05898D9A8DBD
:100D60000E945D06000F81E0E81AF10889F7CE01C4
:100D70000E94EF05DFBE898D9A8D0E945D0681E09D
:100D800090E0C9CFE989FA8980819889892B80838D
:100D9000D3CFE989FA8980819889892B8083DECF36
:100DA000812F8023B1F0E989FA8980819889892B84
:100DB0008083898D9A8D0E945D06000F81E0E81A7C
:100DC000F10871F7E989FA8980819889892B8083F4
:100DD000D1CFCE010E94EF05ECCFFB0101900020A6
:100DE000E9F73197AF01461B570BDC01ED91FC9100
:100DF0000280F381E02D09948F929F92AF92BF926F
:100E0000EF92FF920F931F93CF93DF93CDB7DEB78F
:100E1000A1970FB6F894DEBF0FBECDBF7C01FA01DB
:100E2000CB0119A2223008F42AE08E010F5D1F4F7A
:100E3000822E912CB12CA12CBF01A50194010E94FE
:100E4000F917F901CA016A300CF5605DD8016E939B
:100E50008D01232B242B252B79F790E080E0109730
:100E600021F0BD01C7010E94ED06A1960FB6F894CE
:100E7000DEBF0FBECDBFDF91CF911F910F91FF90CD
:100E8000EF90BF90AF909F908F900895695CDECFF8
:100E9000CF92DF92EF92FF926C01F12CE12C2AE0CD
:100EA000B701AC0183E494E00E94FC062AE0B7019C
:100EB000A6018EEE94E0FF90EF90DF90CF900C941F
:100EC000FC06CF92DF92EF92FF92C82ED12CF12C2C
:100ED000E12C2AE0B701A60183E494E00E94FC061D
:100EE0002AE0B701A6018EEE94E00E94FC06FF9076
:100EF000EF90DF90CF900895CF92DF92EF92FF9224
:100F00006B017C012AE0BC01A60183E494E00E940D
:100F1000FC062AE0B701A6018EEE94E00E94FC06D2
:100F2000FF90EF90DF90CF9008952F923F924F92D5
:100F30005F926F927F928F929F92AF92BF92CF9269
:100F4000DF92EF92FF921F93CF93DF93EC016A0140
:100F50007B01722EAB019601CB01B6010E944419B0
:100F600061E471E0811126C046015701E894B7F8A9
:100F70002FEF3FEF4FE75FE7C501B4010E9444192F
:100F800081110CC02FEF3FEF4FE75FE7C501B401C0
:100F90000E94561665E471E0181664F02FEF3FEFDB
:100FA0004FE75FE4C701B6010E943F191816B4F479
:100FB00069E471E0CE01DF91CF911F91FF90EF9036
:100FC000DF90CF90BF90AF909F908F907F906F9069
:100FD0005F904F903F902F900C94ED062FEF3FEFD6
:100FE0004FE75FECC701B6010E94561687FDE0CFC0
:100FF00020E030E0A901C701B6010E945616312C4D
:10100000212C87FF09C06DE2CE010E94DB041C0188
:10101000F7FAF094F7F8F09410E060E070E080E008
:101020009FE3711641F020E030E040E251E40E947D
:1010300097181F5FF6CFA70196010E942B182B016E
:101040003C010E9410194B015C012AE0BC01A40183
:10105000CE010E94FC067C01E20CF31C1123C1F1BD
:10106000C501B4010E945B169B01AC01C301B20132
:101070000E942A184B015C016EE2CE010E94DB0443
:10108000E80EF91E115020F120E030E040E251E47A
:10109000C501B4010E94BC162B013C010E9410192D
:1010A0004B01B12CA12C2AE0B501A401CE010E9474
:1010B000FC06E80EF91EC501B4010E945B169B01F7
:1010C000AC01C301B2010E942A184B015C01DACFC6
:1010D000C701DF91CF911F91FF90EF90DF90CF90EC
:1010E000BF90AF909F908F907F906F905F904F9048
:1010F0003F902F900895CF93DF93EC01BC0183E4E0
:1011000094E00E94ED06BE018EEE94E0DF91CF9157
:101110000C94ED068DE491E00E947B088091EC0335
:101120000E94610787E591E00E947B08809104019D
:10113000909105010E94480780E791E00E947B089A
:1011400080910201909103010E9448078AE891E092
:101150000E947B0880910601909107010E94480738
:101160008DE991E00E947B08809100010E94610757
:1011700088EA91E00E947B08809101010E9461074A
:1011800087EB91E00C947B088091140590911505F4
:10119000892B59F0E0911005F091110581E09081C3
:1011A000911180E091E08927089581E0FBCF809143
:1011B000100590911105009711F00C941A1660E03B
:1011C00070E0CB0108950F931F93CF93DF93EC0151
:1011D00088819981009759F02A813B81261737072A
:1011E00030F081E0DF91CF911F910F9108958B0135
:1011F0006F5F7F4F0E949C1A009759F099838883F4
:101200001B830A832C813D81232B59F7FC0110821B
:10121000E8CF80E0E7CFCF93DF93EC01198218820B
:101220001B821A821D821C8270E060E00E94E3082B
:101230002881398181110FC02115310519F0C901AB
:101240000E94131A198218821D821C821B821A8224
:10125000DF91CF9108951D821C8269EB71E0C90175
:10126000DF91CF910C946B1BCF93DF93EC0170E077
:1012700060E00E94E3082881398181110FC02115A7
:10128000310519F0C9010E94131A198218821D82B2
:101290001C821B821A82DF91CF9108951D821C82CD
:1012A00069EB71E0C901DF91CF910C946B1B0F9337
:1012B0001F93CF93DF938C01EB010E947A178883F1
:1012C000C80101960E947A178983CE01DF91CF91E0
:1012D0001F910F910895FF920F931F93CF93DF9368
:1012E0008C01EB01F8800E947A17F81621F06F2D1F
:1012F000C8010E948217CE01DF91CF911F910F91FB
:10130000FF900895FF920F931F93CF93DF93EC010B
:101310008B01FB01F0800E947A17F81621F06F2DE7
:10132000CE010E948217F801F1802196CE010E9421
:101330007A17F81621F06F2DCE010E948217C8018E
:10134000DF91CF911F910F91FF9008951F920F92FF
:101350000FB60F9211242F933F938F939F93AF93C8
:10136000BF938091220490912304A0912404B09112
:1013700025043091210423E0230F2D3758F50196E1
:10138000A11DB11D20932104809322049093230476
:10139000A0932404B09325048091260490912704FF
:1013A000A0912804B09129040196A11DB11D80933C
:1013B000260490932704A0932804B0932904BF9196
:1013C000AF919F918F913F912F910F900FBE0F90F2
:1013D0001F90189526E8230F0296A11DB11DD2CFAC
:1013E0001F920F920FB60F9211242F933F934F939A
:1013F0005F936F937F938F939F93AF93BF93EF937D
:10140000FF938091370490913804A0913904B091F2
:101410003A04892B8A2B8B2BD1F190913204E091E5
:101420003304F091340480818927808380913704CC
:1014300090913804A0913904B0913A041816190615
:101440001A061B069CF48091370490913804A091F1
:101450003904B0913A040197A109B1098093370486
:1014600090933804A0933904B0933A04FF91EF911C
:10147000BF91AF919F918F917F916F915F914F91AC
:101480003F912F910F900FBE0F901F901895809154
:101490000801E2E2F2E0E4919FEF90930801E1306D
:1014A00051F030F0E23069F060E00E942C02DECFB3
:1014B00010926E00F9CF90916F009D7F90936F0016
:1014C000F3CF909170009D7F9093700091E0909386
:1014D000B0009091B100987F94609093B100109209
:1014E000B300E2CF1F920F920FB60F9211242F93E9
:1014F0003F934F935F936F937F938F939F93AF939C
:10150000BF93EF93FF9383E494E00E946005FF9103
:10151000EF91BF91AF919F918F917F916F915F916B
:101520004F913F912F910F900FBE0F901F901895E4
:101530001F920F920FB60F9211242F938F939F93A8
:10154000EF93FF93E0915304F09154048081E09174
:101550005904F0915A0482FD1BC0908180915C0473
:101560008F5F8F7320915D04821741F0E0915C04DE
:10157000F0E0ED5BFB4F958F80935C04FF91EF9162
:101580009F918F912F910F900FBE0F901F901895E4
:101590008081F4CF1F920F920FB60F921124EF9219
:1015A000FF920F931F932F933F934F935F936F93EC
:1015B0007F938F939F93AF93BF93CF93DF93EF93DB
:1015C000FF93C091EA03D091EB03209749F0EE8599
:1015D000FF859D858B8D81FF1AC080818923D1F481
:1015E000FF91EF91DF91CF91BF91AF919F918F913B
:1015F0007F916F915F914F913F912F911F910F912B
:10160000FF90EF900F900FBE0F901F901895808164
:10161000892331F78B899C890E945D0688E0E82E3A
:10162000F12C10E001E08D899E890E945D06EE8517
:10163000FF8580819D85892339F1102B000F81E082
:10164000E81AF10881F78F89988D0E945D068B8DCD
:1016500081FD10958091E9032091E80390E00196C7
:101660008F7399272817190699F0E091E903F0E0A4
:10167000E855FC4F10838091E90390E001968F7349
:1016800099278093E903ACCF802F80951823D6CF7C
:101690008B8D81608B8FA4CF1F920F920FB60F920C
:1016A00011242F933F934F935F936F937F938F9367
:1016B0009F93AF93BF93EF93FF930E94CA0AFF914A
:1016C000EF91BF91AF919F918F917F916F915F91BA
:1016D0004F913F912F910F900FBE0F901F90189533
:1016E0001F920F920FB60F9211242F933F934F9397
:1016F0005F936F937F938F939F93AF93BF93EF937A
:10170000FF930E94CA0AFF91EF91BF91AF919F9101
:101710008F917F916F915F914F913F912F910F909A
:101720000FBE0F901F901895CF92DF92EF92FF920D
:10173000109246041092450428EEC22E23E0D22EC9
:10174000E12CF12CC0924704D0924804E092490465
:10175000F0924A0481E291E0909344048093430420
:1017600085EC90E09093500480934F0484EC90E0DB
:10177000909352048093510480EC90E09093540431
:101780008093530481EC90E0909356048093550429
:1017900082EC90E0909358048093570486EC90E09C
:1017A00090935A048093590410925C0410925D0443
:1017B00010925E0410925F0480E195E00E940B0994
:1017C0008AE095E00E940B091092F1041092F00457
:1017D000C092F204D092F304E092F404F092F50483
:1017E00083E391E09093EF048093EE04109202055E
:1017F000109201051092040510920305109206053F
:1018000010920505109208051092070580910905B0
:101810008E7F8D7F8093090561E086E00E947802CB
:1018200061E086E00E942C02E1E5F2E0E491E093C1
:10183000FE04EDE3F2E0E491F0E0EE0FFF1FE35D64
:10184000FD4F85919491909300058093FF0460E093
:1018500085E00E9478028091090581FD04C061E065
:1018600085E00E942C0285E08093FA04E0E5F2E036
:10187000E491E093FB04ECE3F2E0E491F0E0EE0F9E
:10188000FF1FED5DFD4F859194919093FD04809332
:10189000FC0460E087E00E947802E2E5F2E0E49177
:1018A000E093E004EEE3F2E0E491F0E0EE0FFF1FDE
:1018B000ED5DFD4F859194919093E2048093E10456
:1018C0001092EB041092ED041092EC041092EA04D2
:1018D0001092E9041092E8041092E7041092E604D2
:1018E0001092E5041092E4041092E304FF90EF904C
:1018F000DF90CF900895CF93DF9300D000D000D039
:10190000CDB7DEB7789484B5826084BD84B581603C
:1019100084BD85B5826085BD85B5816085BD8091BA
:101920006E00816080936E00109281008091810032
:10193000826080938100809181008160809381002A
:10194000809180008160809380008091B1008460EC
:101950008093B1008091B00081608093B00080914D
:101960007A00846080937A0080917A00826080930C
:101970007A0080917A00816080937A0080917A0069
:10198000806880937A001092C10061E083E00E9439
:10199000780261E089E00E94780261E088E00E94BC
:1019A000780261E082E10E94780261E081E10E94B8
:1019B000780260E081E10E942C02E0915304F091F2
:1019C000540482E08083E0914F04F091500410822F
:1019D000E0915104F09152048FEC808310925B04EB
:1019E000E0915704F091580486E08083E09155041B
:1019F000F0915604808180618083E0915504F091DC
:101A00005604808188608083E0915504F0915604EB
:101A1000808180688083E0915504F0915604808134
:101A20008F7D80831092080510920705109206059D
:101A300010920505109204051092030510920205FC
:101A40001092010590E080E0FC01E859FF4F4591BC
:101A5000559165917491403855426105710509F0C1
:101A600036C1FC01E459FF4F2591349130930205B2
:101A700020930105FC01E259FF4F259134913093E9
:101A8000040520930305FC01E059FF4F2591349193
:101A90003093060520930505FC01EE58FF4F859114
:101AA0009491909308058093070580910505909186
:101AB0000605892BB1F19091FA04963160F52091D9
:101AC000680084E0983048F031E09E3008F430E05F
:101AD00081E001C0880F3A95EAF7822B8093680075
:101AE000EDE6F0E0983050F0EBE6F0E09E3030F0BC
:101AF000ECE6F0E0963110F0F0E0E0E04081292FD4
:101B000030E0983008F0E9C081E001C0880F9A9574
:101B1000EAF7842B808380910705909108050E9445
:101B20005D068091EA039091EB038E5E944091F004
:101B3000809109058E7F809309058FB7F8941092E4
:101B4000E9031092E8032EEE34E03093EB03209388
:101B5000EA038FBF84E690E0A0E0B0E08093F20457
:101B60009093F304A093F404B093F5048AEB91E00E
:101B70000E947B0864E071E082E090E00E945709D7
:101B8000DC018D919C91909305018093040162E0AA
:101B900071E084E090E00E945709FC01808191810E
:101BA000909303018093020166E071E086E090E08B
:101BB0000E945709DC018D919C91909307018093BD
:101BC000060188E090E00E947A178093000189E086
:101BD00090E00E947A178093010168EC70E088EB36
:101BE0009BE00E94670662ED70E080E090E00E945A
:101BF0009D0468EC70E088E893E10E94670662ED5E
:101C000070E080E090E00E949D040E94750666E905
:101C100070E080E090E00E949D0460E083E00E941C
:101C20002C0266E970E080E090E00E949D040E9432
:101C3000750666E970E080E090E00E949D0461E036
:101C400089E00E942C0268EC70E080E090E00E9445
:101C50009D0481E00E94710668EC70E080E090E0F5
:101C60000E949D0460E089E00E942C0268EC70E014
:101C700080E090E00E949D0480E00E947106E09068
:101C8000ED04EE20B9F11092EB041092ED041092E5
:101C9000EC0480E023EE34E04AE254E0FA01D9019A
:101CA0009D919D019193B4E0E233FB07C1F7882336
:101CB00059F198E080E0915009F49FC0DA01ED916C
:101CC000AD01E827F0E0EC5FFE4F8491F4CF0C9675
:101CD0008C39910509F0B8CEE8CE9E3040F42850FA
:101CE000310981E001C0880F2A95EAF712CF2E5002
:101CF0003109F7CF0E94F301811128C01092EB0443
:101D00001092ED041092EC0485EC91E00E947B08A7
:101D10001092EB041092ED041092EC041092EA047D
:101D20001092E9041092E8041092E7041092E6047D
:101D30001092E5041092E4041092E30462E370E070
:101D400080E090E00E949D0480E072C060E080EF3F
:101D50000E94B101D12CFF24F39401E00E945C01A8
:101D6000182F0E945C01113099F4813081F5013403
:101D700008F489CFE092EB04E11003C081E0809386
:101D8000ED048091E304882309F47DCF81E082CFC4
:101D9000ED2DF0E0181311C08091EB040817A8F4A2
:101DA000DF01A052BB4F13968C918F2181F410E07C
:101DB000093010F40093EC04E02EE052FB4F8381D5
:101DC0009F2D9095892383830AC08013F0CFED2D3A
:101DD000F0E0E052FB4F83818F29838311E0812F54
:101DE0000E9481010F5FFF0C19F4D394FF24F39438
:101DF000B7E0BD1508F0B2CFBACF90913104981773
:101E000029F089ED91E00E947B089ECF80912A0401
:101E1000823209F468C0883209F45DC0803109F06B
:101E200065C08CEE91E00E947B0881E08093ED0319
:101E30008093EC030E948A0881E08093180410923A
:101E400014041092150410921604109217040E94A4
:101E5000CF04609310047093110480931204909344
:101E6000130468EE262E63E0362E0E94F3010E94D2
:101E7000E00161E084E40E94B10162E370E080E08F
:101E800090E00E949D040E94F3010E94E00160E046
:101E90008EEB0E94B1011092FA03D090FA03B8E0E1
:101EA000BD1538F10D2D10E058E0E52EF12CC12CB8
:101EB000BB24B3940E945C018111CB28BB0CE1E0F0
:101EC000EE1AF108B9F7F801E251FC4FC082D39441
:101ED000D092FA03E2CF8CEF91E00E947B0810923F
:101EE000ED0381E0A5CF8CE092E0F7CF8BE192E0AB
:101EF0008ACF6091EE037091EF038091ED03882308
:101F000009F4B8C343E0660F771F4A95E1F7809163
:101F1000F503803149F48091F4032CE030E0281B74
:101F20003109607F620F731F072E000C880B990B1D
:101F30000E945D1620E030E040E85DE30E94BC16A0
:101F400060931D0470931E0480931F0490932004DB
:101F50000E94CF046093190470931A0480931B04A9
:101F600090931C0480910001882309F475C00E949D
:101F7000CF044B015C018091FB039091FC03A09185
:101F8000FD03B091FE03A5019401281B390B4A0BF8
:101F90005B0BDA01C901883E9340A105B10508F445
:101FA0005BC083E492E00E947B0860911904709109
:101FB0001A0480911B0490911C040091100410914C
:101FC00011042091120430911304601B710B820BD9
:101FD000930B28EE33E040E050E00E94F917CA016D
:101FE000B9010E947C0788E492E00E947B08C090BF
:101FF0001D04D0901E04E0901F04F090200422E005
:10200000B701A60183E494E00E94950722E0B7019E
:10201000A6018EEE94E00E9495078EE492E00E9465
:102020007B08C0901804D12CF12CE12C2AE0B701D8
:10203000A60183E494E00E94FC062AE0B701A60111
:102040008EEE94E00E94FC068092FB039092FC03CB
:10205000A092FD03B092FE038EEE94E00E9424064F
:10206000181619060CF061C08091030490910404C5
:10207000892B71F441E050E0509304044093030431
:102080008AE095E00E94340980E195E00E943409DD
:102090008091030490910404029731F483E090E06E
:1020A00090930404809303048EEE94E00E943C0617
:1020B000803209F0EEC2A2E0B0E0B0930404A09335
:1020C000030420910304309104042130310509F008
:1020D000EAC289831A8200910E0510910F050F5FE5
:1020E0001F4FB8018AE095E00E94E308882399F029
:1020F00020910A0530910B0580910E0590910F05F6
:10210000BE016F5F7F4F820F931F0E946B1B109366
:102110000F0500930E050E94CF046093FF03709398
:102120000004809301049093020480910304909131
:102130000404049759F5A0900E05B0900F05C090C7
:102140000A05D0900B053FE0E32E31E0F32E10E0BE
:1021500000E0D7016D917D917D01A114B10409F0DA
:10216000CAC26115710509F4D2C2FB0180818823BE
:1021700009F4CDC20F5F1F4F0730110551F781E001
:102180008093070410920404109203040E94CF0469
:102190000091FF031091000420910104309102048A
:1021A000601B710B820B930B6B30710581059105E0
:1021B00050F08091030490910404892B21F0109237
:1021C000040410920304809107048823C9F010923C
:1021D00007048091050490910604009709F09CC2C1
:1021E0000E948A08E0E3F0E0F0930604E09305041F
:1021F00080E195E00E9434091092040410920304D7
:1022000080911804853009F428C2809114049091BB
:102210001504A0911604B09117040097A105B1050B
:1022200009F432C34091190450911A0460911B04BF
:1022300070911C04481B590B6A0B7B0B2091060103
:1022400030910701229DC001239D900D329D900D7C
:102250001124B0E0A0E084179507A607B70708F09F
:1022600013C30E94750661E089E00E942C0280E0A1
:102270000E94710686E693E00E947B0885E08093C9
:102280001804809101018111E8C14CE251E060E045
:1022900070E08CEB92E00E94A90268E572E080E0B9
:1022A00090E00E949D044CE251E060E070E08CEB15
:1022B00092E00E94A90268E572E080E090E00E944E
:1022C0009D0446E950E060E070E08CE093E00E94FD
:1022D000A9026CE271E080E090E00E949D0446E972
:1022E00050E060E070E08CEB92E00E94A9026CE2AA
:1022F00071E080E090E00E949D0442EC51E060E0DB
:1023000070E081E792E00E94A90268E572E080E057
:1023100090E00E949D0446E950E060E070E08EE4A9
:1023200092E00E94A9026CE271E080E090E00E94DD
:102330009D0446E950E060E070E088E092E00E9491
:10234000A9026CE271E080E090E00E949D0442EC02
:1023500051E060E070E08CEC91E00E94A90268E539
:1023600072E080E090E00E949D0442EC51E060E069
:1023700070E08EE591E00E94A90268E572E080E0DD
:1023800090E00E949D0468E572E080E090E00E9489
:102390009D0442EC51E060E070E08EE591E00E9427
:1023A000A90268E572E080E090E00E949D0442ECA2
:1023B00051E060E070E08CEC91E00E94A90268E5D9
:1023C00072E080E090E00E949D0446E950E060E009
:1023D00070E088E092E00E94A9026CE271E080E087
:1023E00090E00E949D0446E950E060E070E08EE4D9
:1023F00092E00E94A9026CE271E080E090E00E940D
:102400009D0442EC51E060E070E081E792E00E94C0
:10241000A90268E572E080E090E00E949D0446E930
:1024200050E060E070E08EE492E00E94A9026CE26D
:1024300071E080E090E00E949D0446E950E060E099
:1024400070E088E092E00E94A9026CE271E080E016
:1024500090E00E949D0446E455E060E070E08CEB63
:1024600092E00E94A90268E077E080E090E00E949C
:102470009D044CE251E060E070E08CEB92E00E9441
:10248000A90268E572E080E090E00E949D044CE2C1
:1024900051E060E070E08CEB92E00E94A90268E5F8
:1024A00072E080E090E00E949D0446E950E060E028
:1024B00070E08CE093E00E94A9026CE271E080E0A1
:1024C00090E00E949D0446E950E060E070E08CEBF3
:1024D00092E00E94A9026CE271E080E090E00E942C
:1024E0009D0442EC51E060E070E081E792E00E94E0
:1024F000A90268E572E080E090E00E949D0446E950
:1025000050E060E070E08EE492E00E94A9026CE28C
:1025100071E080E090E00E949D0446E950E060E0B8
:1025200070E088E092E00E94A9026CE271E080E035
:1025300090E00E949D0442EC51E060E070E08CEC81
:1025400091E00E94A90268E572E080E090E00E94BC
:102550009D0442EC51E060E070E08EE591E00E9465
:10256000A90268E572E080E090E00E949D0468E5C1
:1025700072E080E090E00E949D0442EC51E060E057
:1025800070E08EE591E00E94A90268E572E080E0CB
:1025900090E00E949D0442EC51E060E070E081E731
:1025A00092E00E94A90268E572E080E090E00E945B
:1025B0009D0446E950E060E070E08EE492E00E9405
:1025C000A9026CE271E080E090E00E949D0446E97F
:1025D00050E060E070E088E092E00E94A9026CE2C6
:1025E00071E080E090E00E949D0442EC51E060E0E8
:1025F00070E08CEB92E00E94A90268E572E080E056
:1026000090E00E949D0446E950E060E070E08EE4B6
:1026100092E00E94A9026CE271E080E090E00E94EA
:102620009D0446E950E060E070E088E092E00E949E
:10263000A9026CE271E080E090E00E949D0446E413
:1026400055E060E070E08CEC91E00E94A90268E83F
:1026500073E180E090E00E949D04E0E0F0E0EF2B69
:1026600009F403CC0E944C05882309F4FACB0E949C
:102670000000F7CB8091F203807611F4687F54CC90
:10268000803211F46C7F50CC803409F04DCC6E7FD9
:102690004BCC8B3309F015CDE4E0F0E0F09304046B
:1026A000E09303040ECD2330310509F034CD898346
:1026B0001A8200911405109115050F5F1F4FB80184
:1026C00080E195E00E94E308882309F424CD20915D
:1026D0001005309111058091140590911505BE01EA
:1026E0006F5F7F4F820F931F0E946B1B1093150526
:1026F0000093140510CD6115710519F4D6018C9164
:1027000036CDC6010E94621B892B09F033CD109390
:102710000604009305042ECD81309105F9F40E9442
:10272000C408882361F00E94D70870930501609364
:10273000040164E071E082E090E00E94820987E594
:1027400091E00E947B0880910401909105010E9414
:10275000480788EB91E00E947B0844CD82309105C8
:10276000C9F40E94C408882361F00E94D7087093BE
:1027700003016093020162E071E084E090E00E9456
:10278000820980E791E00E947B088091020190918C
:102790000301DDCF83309105C9F40E94C40888236A
:1027A00061F00E94D708709307016093060166E00C
:1027B00071E086E090E00E9482098AE891E00E9440
:1027C0007B088091060190910701C1CF843091056B
:1027D000E9F40E94C408882381F00E94D70821E010
:1027E000672B682B692B09F420E02093000160E03F
:1027F00071E088E090E00E946B098DE991E00E9411
:102800007B08809100010E946107A3CF853091056C
:10281000D9F40E94C408882381F00E94D70821E0DF
:10282000672B682B692B09F420E02093010161E0FC
:1028300071E089E090E00E946B0988EA91E00E94D3
:102840007B0880910101DFCF069709F0CBCC88E5AA
:1028500092E00E947B0884E792E00E947B088DEA68
:1028600092E00E947B0887EE92E00E947B0885E15F
:1028700093E00E947B0881E393E00E947B0882E55D
:1028800093E00E947B0865CF4090040150900501C1
:10289000712C612CC301B2010E945B166B837C8397
:1028A0008D839E83C0901D04D0901E04E0901F0471
:1028B000F0902004A70196010E943F1918165CF4BD
:1028C00060E083E00E942C0281E00E94710682E0B9
:1028D00080931804C2CE00910201109103014801B7
:1028E000F2E08F0E911CB12CA12CC501B4010E9405
:1028F0005B169B01AC01C701B6010E945616181663
:102900000CF456C1A70196016B817C818D819E815B
:102910000E94561618160CF44BC1B80190E080E0E6
:102920000E945B169B01AC01C701B6010E943F19D2
:1029300018160CF05BC00E94750660910201709140
:1029400003016250710990E080E00E945B169B01D8
:10295000AC01C701B6010E943F1987FD22C18090DA
:10296000140490901504A0901604B09017042091C0
:10297000190430911A0440911B0450911C04281929
:1029800039094A095B09A5E2BEEF0E94BD174091D3
:10299000060150910701429D9001439D300D529DCB
:1029A000300D112450E040E00E94901769017A0137
:1029B00084EFC80E81E0D81EE11CF11C0E94CF04F8
:1029C000009108041091090420910A0430910B042D
:1029D000DC01CB01801B910BA20BB30B8C159D0569
:1029E000AE05BF0508F068C081E071C020911904F0
:1029F00030911A0440911B0450911C042B833C839A
:102A00004D835E83C701B6010E9409199B01AC0189
:102A10002419350946095709A6EEBBEF0E94BD17D8
:102A2000A501940124193509460957090E949017F8
:102A300049015A018CE4880E84E0981EA11CB11C47
:102A400040900C0450900D0460900E0470900F04A0
:102A50008B819C81AD81BE8184199509A609B70936
:102A6000893E9340A105B10520F060E083E00E941B
:102A70002C02AA24BB242B813C814D815E81281924
:102A800039094A095B0949015A01DA01C901841966
:102A90009509A609B709893E9340A105B10508F437
:102AA0004CCF0E94750680920C0490920D04A09267
:102AB0000E04B0920F0441CFCC0CDD1CEE1CFF1CA9
:102AC000C816D906EA06FB0608F460C080E00E943A
:102AD000710689288A288B2809F054C00E94CF04E7
:102AE0006093140470931504809316049093170454
:102AF00083E492E00E947B086091190470911A04AB
:102B000080911B0490911C040091100410911104F9
:102B10002091120430911304601B710B820B930BF4
:102B200028EE33E040E050E00E94F917CA01B901F5
:102B30000E947C078FE693E00E947B086CE870E0BF
:102B400088EE93E00E94670666E970E080E090E01E
:102B50000E949D046CE870E088EE93E00E94670696
:102B600066E970E080E090E00E949D046CE870E00F
:102B700088E097E00E94670666E970E080E090E0F8
:102B80000E949D0494E09093180467CD0E94CF04A6
:102B9000609308047093090480930A0490930B04D3
:102BA00023CF81E00E947106A3E0A093180455CDC5
:102BB0000E947506B6E0B09318044FCD83E391E010
:102BC0009093EF048093EE042091FA042631C0F430
:102BD000EDE6F0E0283030F0EBE6F0E02E3010F0DB
:102BE000ECE6F0E03081422F50E02830A8F481E09C
:102BF00090E001C0880F2A95EAF7809583238083AF
:102C000080910A0590910B050E94131A809110057E
:102C1000909111050C94131A2E3048F44850510924
:102C200081E090E001C0880F4A95EAF7E6CF4E5068
:102C30005109F6CF1F93FC0199278827BC01E8941E
:102C400011911032E9F3193010F01E30C8F31B3225
:102C500051F01D3249F4689406C00E944116610F7C
:102C6000711D811D911D119110531A30B0F33EF466
:102C700090958095709561957F4F8F4F9F4F1F91D5
:102C80000895592F482F372F262F660F771F881F3B
:102C9000991F660F771F881F991F620F731F841F6C
:102CA000951F660F771F881F991F08950E94981619
:102CB00008F481E00895E89409C097FB3EF49095EC
:102CC0008095709561957F4F8F4F9F4F9923A9F005
:102CD000F92F96E9BB279395F69587957795679594
:102CE000B795F111F8CFFAF4BB0F11F460FF1BC0D8
:102CF0006F5F7F4F8F4F9F4F16C0882311F096E96B
:102D000011C0772321F09EE8872F762F05C0662318
:102D100071F096E8862F70E060E02AF09A95660FD1
:102D2000771F881FDAF7880F9695879597F908958A
:102D3000990F0008550FAA0BE0E8FEEF16161706CC
:102D4000E807F907C0F012161306E407F50798F034
:102D5000621B730B840B950B39F40A2661F0232B4D
:102D6000242B252B21F408950A2609F4A140A695C9
:102D70008FEF811D811D08950E94CF160C9440177E
:102D80000E94321738F00E94391720F0952311F075
:102D90000C9429170C942F1711240C9474170E946B
:102DA000511770F3959FC1F3950F50E0551F629F27
:102DB000F001729FBB27F00DB11D639FAA27F00D94
:102DC000B11DAA1F649F6627B00DA11D661F829FBB
:102DD0002227B00DA11D621F739FB00DA11D621FA0
:102DE000839FA00D611D221F749F3327A00D611DBD
:102DF000231F849F600D211D822F762F6A2F11249F
:102E00009F5750409AF0F1F088234AF0EE0FFF1FD1
:102E1000BB1F661F771F881F91505040A9F79E3F28
:102E2000510580F00C9429170C9474175F3FE4F35C
:102E3000983ED4F3869577956795B795F795E7957E
:102E40009F5FC1F7FE2B880F911D9695879597F987
:102E5000089597F99F6780E870E060E008959FEF1C
:102E600080EC089500240A94161617061806090621
:102E7000089500240A9412161306140605060895F0
:102E8000092E0394000C11F4882352F0BB0F40F478
:102E9000BF2B11F460FF04C06F5F7F4F8F4F9F4FB8
:102EA000089557FD9058440F551F59F05F3F71F03A
:102EB0004795880F97FB991F61F09F3F79F08795A1
:102EC0000895121613061406551FF2CF4695F1DF2A
:102ED00008C0161617061806991FF1CF86957105BA
:102EE000610508940895E894BB2766277727CB01EE
:102EF00097F90895F999FECF92BD81BDF89A992767
:102F000080B50895262FF999FECF1FBA92BD81BDD5
:102F100020BD0FB6F894FA9AF99A0FBE019608955B
:102F2000052E97FB1EF400940E94A71757FD07D0AB
:102F30000E94F91707FC03D04EF40C94A717509584
:102F40004095309521953F4F4F4F5F4F0895909595
:102F50008095709561957F4F8F4F9F4F08950E9488
:102F60001B18A59F900DB49F900DA49F800D911DDF
:102F700011240895B7FF0C94AF170E94AF17821B5E
:102F8000930B08952F923F924F925F926F927F9290
:102F90008F929F92AF92BF92CF92DF92EF92FF9269
:102FA0000F931F93CF93DF93CDB7DEB7CA1BDB0B15
:102FB0000FB6F894DEBF0FBECDBF09942A883988BA
:102FC00048885F846E847D848C849B84AA84B984C1
:102FD000C884DF80EE80FD800C811B81AA81B981CD
:102FE000CE0FD11D0FB6F894DEBF0FBECDBFED01E1
:102FF0000895A1E21A2EAA1BBB1BFD010DC0AA1F3A
:10300000BB1FEE1FFF1FA217B307E407F50720F051
:10301000A21BB30BE40BF50B661F771F881F991FCC
:103020001A9469F760957095809590959B01AC0115
:10303000BD01CF010895A29FB001B39FC001A39F1E
:10304000700D811D1124911DB29F700D811D1124E1
:10305000911D08955058BB27AA270E9442180C942E
:1030600040170E94321738F00E94391720F039F4C7
:103070009F3F19F426F40C942F170EF4E095E7FB0C
:103080000C942917E92F0E94511758F3BA176207B9
:1030900073078407950720F079F4A6F50C9473174D
:1030A0000EF4E0950B2EBA2FA02D0B01B901900163
:1030B0000C01CA01A0011124FF27591B99F0593FA7
:1030C00050F4503E68F11A16F040A22F232F342FEF
:1030D0004427585FF3CF469537952795A795F0403D
:1030E0005395C9F77EF41F16BA0B620B730B840B52
:1030F000BAF09150A1F0FF0FBB1F661F771F881F0A
:10310000C2F70EC0BA0F621F731F841F48F4879561
:1031100077956795B795F7959E3F08F0B0CF939553
:10312000880F08F09927EE0F9795879508950E94CC
:10313000AB180C9440170E94391758F00E943217B0
:1031400040F029F45F3F29F00C94291751110C9499
:1031500074170C942F170E94511768F39923B1F339
:10316000552391F3951B550BBB27AA2762177307AD
:10317000840738F09F5F5F4F220F331F441FAA1F41
:10318000A9F335D00E2E3AF0E0E832D091505040FD
:10319000E695001CCAF72BD0FE2F29D0660F771FAB
:1031A000881FBB1F261737074807AB07B0E809F091
:1031B000BB0B802DBF01FF2793585F4F3AF09E3F16
:1031C000510578F00C9429170C9474175F3FE4F3C1
:1031D000983ED4F3869577956795B795F7959F5F59
:1031E000C9F7880F911D9695879597F90895E1E0A5
:1031F000660F771F881FBB1F621773078407BA0704
:1032000020F0621B730B840BBA0BEE1F88F7E0955E
:1032100008950E9410196894B1110C9474170895C0
:103220000E94591788F09F5798F0B92F9927B751E6
:10323000B0F0E1F0660F771F881F991F1AF0BA955A
:10324000C9F714C0B13091F00E947317B1E008952E
:103250000C947317672F782F8827B85F39F0B93F20
:10326000CCF3869577956795B395D9F73EF490950D
:103270008095709561957F4F8F4F9F4F08950E9465
:10328000981608F48FEF08950E949816880B990BF2
:10329000089597FB072E16F4009407D077FD09D008
:1032A0000E945D1907FC05D03EF4909581959F4FD3
:1032B0000895709561957F4F0895AA1BBB1B51E13E
:1032C00007C0AA1FBB1FA617B70710F0A61BB70B96
:1032D000881F991F5A95A9F780959095BC01CD013B
:1032E0000895EE0FFF1F0590F491E02D09940F93C0
:1032F0001F93CF93DF938230910510F482E090E02A
:10330000E0911805F091190530E020E0B0E0A0E070
:10331000309799F42115310509F44AC0281B390B5F
:1033200024303105D8F58A819B816115710589F1B9
:10333000FB0193838283FE0111C040815181028190
:10334000138148175907E0F04817590799F4109767
:1033500061F012960C93129713961C933296CF013C
:10336000DF91CF911F910F9108950093180510934D
:103370001905F4CF2115310551F04217530738F0E4
:10338000A901DB019A01BD01DF01F801C1CFEF0105
:10339000F9CF9093190580931805CDCFFE01E20F68
:1033A000F31F819391932250310939832883D7CF1A
:1033B0002091160530911705232B41F420910B0124
:1033C00030910C01309317052093160520910901C7
:1033D00030910A012115310541F42DB73EB74091D6
:1033E0000D0150910E01241B350BE0911605F09153
:1033F0001705E217F307A0F42E1B3F0B2817390718
:1034000078F0AC014E5F5F4F2417350748F04E0F40
:103410005F1F5093170540931605819391939FCF9B
:10342000F0E0E0E09CCFCF93DF930097E9F0FC0160
:10343000329713821282A0911805B0911905ED01FF
:1034400030E020E01097A1F420813181820F931F9A
:1034500020911605309117052817390709F061C02A
:10346000F0931705E0931605DF91CF910895EA01D7
:10347000CE17DF07E8F54A815B819E0141155105B2
:10348000B1F7E901FB83EA8349915991C40FD51F34
:10349000EC17FD0761F4808191810296840F951FDE
:1034A000E90199838883828193819B838A83F0E0F9
:1034B000E0E012968D919C9113970097B9F52D91AC
:1034C0003C911197CD010296820F931F2091160512
:1034D000309117052817390739F6309751F51092B2
:1034E000190510921805B0931705A0931605BCCFC7
:1034F000D383C28340815181840F951FC817D90798
:1035000061F44E5F5F4F88819981480F591F518345
:1035100040838A819B81938382832115310509F041
:10352000B0CFF0931905E09318059ECFFD01DC01A3
:10353000C0CF13821282D7CFB0E0A0E0E2EAFAE176
:103540000C94C4178C01009751F4CB010E94771999
:103550008C01C801CDB7DEB7E0E10C94E017FC01A7
:10356000E60FF71F9C0122503109E217F30708F418
:103570009DC0D901CD91DC911197C617D70798F05E
:10358000C530D10530F3CE0104978617970708F3AD
:10359000C61BD70B2297C193D1936D937C93CF0118
:1035A0000E94131AD6CF5B01AC1ABD0A4C018C0ED7
:1035B0009D1EA0911805B0911905512C412CF12C9C
:1035C000E12C109731F5809116059091170588151B
:1035D000990509F05CC04616570608F058C080915E
:1035E000090190910A01009741F48DB79EB740916F
:1035F0000D0150910E01841B950BE817F90708F097
:1036000055C0F0931705E0931605F90171836083A7
:10361000A0CF8D919C91119712966C901297139652
:103620007C901397A815B90559F56C0142E0C40EBA
:10363000D11CCA14DB0420F1AC014A195B09DA0180
:103640001296159780F06282738251834083D9016C
:103650006D937C93E114F10471F0D7011396FC9300
:10366000EE93129776CF22968C0F9D1FF9019183CE
:103670008083F301EFCFF0931905E093180569CF2C
:103680004816590608F42C017D01D3019ACFCB01CD
:103690000E9477197C01009749F0AE01B8010E94A1
:1036A000591BC8010E94131A870153CF10E000E094
:1036B00050CFFB01DC0102C001900D9241505040FF
:1036C000D8F70895FB01DC018D910190801901105C
:1036D000D9F3990B0895FB01DC0101900D920020B4
:1036E000E1F7089511E0C1E3D1E004C0FE010E94BA
:0E36F00071192196C233D107C9F7F894FFCFA4
:1036FE0001015E002800B400FF00001A058000855D
:10370E00038F03920395039A039E03A30300000005
:10371E00008205E2040F05CF0540051E05320500A7
:10372E000000007906E2046406150624063C06FB3A
:10373E00056E616E00696E66006F7666000A496EF0
:10374E00697465643A20000A50574D207374617293
:10375E00742074656D70657261747572653A2000BF
:10376E000A45787472616374696F6E2074656D704A
:10377E00657261747572653A20000A4578747261DB
:10378E006374696F6E2074696D653A20000A4C6F20
:10379E006767696E673A20000A4D75746520736F0E
:1037AE00756E64733A20000A0A000A0A436F666552
:1037BE006542540A004E6F206D6F7265206164641D
:1037CE007265737365732E0A00435243206973202A
:1037DE006E6F742076616C6964210A0043686970AB
:1037EE00203D20445331385332300A00436869700B
:1037FE00203D20445331384232300A00436869700C
:10380E00203D204453313832320A004465766963D4
:10381E0065206973206E6F742061204453313878AF
:10382E0032302066616D696C7920646576696365F6
:10383E002E0A000A743A20003B20543A20003B2006
:10384E0053746174653A20000A676574636F6E661F
:10385E006967203A2072657475726E7320636F6E9D
:10386E00666967000A5430203C696E745B43656C70
:10387E0073697573206465677265655D3E3A20678E
:10388E0065742F7365742050574D20737461727474
:10389E002074656D7065726174757265000A5431BD
:1038AE00203C696E745B43656C7369757320646547
:1038BE00677265655D3E3A206765742F7365742087
:1038CE0045787472616374696F6E2074656D70658E
:1038DE00726174757265000A65787474203C696E45
:1038EE00745B7365636F6E64735D3E3A20676574D7
:1038FE002F7365742045787472616374696F6E20DE
:10390E0074696D65000A6C6F67203C312D303E3A4C
:10391E00206765742F736574204C6F6767696E67D7
:10392E00000A6D757465203C312D303E3A20676576
:10393E00742F736574204D75746520736F756E6486
:10394E0073000A68656C70203A207072696E74207C
:10395E00746869735E000A5265616479210A003BDE
:10396E00202045787472616374696F6E2073746180
:10397E007274656400676574636F6E666967005480
:10398E00300054310065787474006C6F67006D758B
:08399E0074650068656C70009F
:00000001FF
